:100363003F065B4F666D7D077F6F777C395E7971E2
:1003730076384000FFDDDDDDC1DDDDE387BBBB8714
:10038300BBBB87FFC7BFBFBFBFBFBFC787BBBBBBAE
:10039300BBBBBB87FF87BFBF87BFBF87FFBFBFBFD6
:1003A30087BFBF87FFC7BBBBA3BFBFC3FFBBBBBB6E
:1003B30083BBBBBBEFEFEFEFEFEFEFEFFFCFF7F752
:1003C300F7F7F7FFFFDBD7D7CFD7D7DBFFE3EFEFA6
:1003D300EFEFEFEFBBBBBBABAB9393BBFFB7B7A7E2
:1003E300A79797B7C7BBBBBBBBBBBBC7DFDFDFDF12
:1003F300C3DDDDC3FFFFE0DDDDDDE3FF7F7D7B7775
:0C0403000F77770FFFFFFFFFFFFFFFFFE9
:0805520002110012020800135F
:0B04F80093F580D2A6C2A67F057E000F
:10050300D3EF9400EE940040147D907C00ED1D70B9
:0D051300011CED4C70F7EF1F70E61E80E339
:0105200022B8
:10052100E4F50AF50BC2B5EF30E004D2B48002C2A3
:10053100B4D2B5EFC313FF050BE50B7002050A64D6
:0605410008450A70E022EB
:1001830075B0F0E5B064F070030202337F0A7E00BD
:10019300120503E5B064F07003020233AFB0EF243D
:1001A30090603324C0602124E0600F24F07033E4B6
:1001B300F508F509F511F512802875080075090190
:1001C300751100751201801A750800750902751101
:1001D30000751202800C750800750903751100750E
:1001E300120375B00FAFB0EF24F9602924FC601639
:1001F30024FE600314803474042509F509E43508EA
:10020300F5087404801C74082509F509E43508F51C
:10021300087408800D740C2509F509E43508F50800
:10022300740C2512F512E43511F511E5B0B40FFB8A
:1002330075B0FFE5B0F460597F0A7E00120503E54F
:10024300B0F4604DAFB0EF2409603524FC60232483
:10025300FE6011147036750800750910751100756C
:100263001210802875080075091175110075121197
:10027300801A750800750912751100751212800C29
:10028300750800750913751100751213E5B0B4FFF5
:02029300FB224C
:080003008F168E158D148C136D
:10000B007B807A96799878001202D18F177B807A51
:10001B009679987800AF16AE15AD14AC131202D1C9
:10002B00AC00AD01AE02AF037B407A42790F780092
:10003B001202D18F187B407A42790F7800AF16AE3F
:10004B0015AD14AC131202D1AC00AD01AE02AF036F
:10005B007BA07A86790178001202D18F197BA07A66
:10006B008679017800AF16AE15AD14AC131202D120
:10007B00AC00AD01AE02AF03E47B107A27F9F812A6
:10008B0002D18F1AE47B107A27F9F8AF16AE15ADB3
:10009B0014AC131202D1AC00AD01AE02AF03E47B82
:1000AB00E87A03F9F81202D18F1BE47BE87A03F9A3
:1000BB00F8AF16AE15AD14AC131202D1AC00AD01F6
:1000CB00AE02AF03E47B64FAF9F81202D18F1CE4A1
:1000DB007B64FAF9F8AF16AE15AD14AC131202D15E
:1000EB00AC00AD01AE02AF03E47B0AFAF9F81202E1
:1000FB00D18F1DE47B0AFAF9F8AF16AE15AD14AC2F
:10010B00131202D1C2A6C2A71204FF7580FED2A79A
:10011B00C2A7E5179003631204F87580FDD2A7C23E
:10012B00A7E5181204F87580FBD2A7C2A7E5191230
:10013B0004F87580F7D2A7C2A7E51A1204F87580E8
:10014B00EFD2A7C2A7E51B1204F87580DFD2A7C2B6
:10015B00A7E51C1204F87580BFD2A7C2A7E51D1234
:10016B0004F875807FD2A7C2A7EB93F580D2A6C205
:08017B00A67F057E00020503CA
:10049B00750E80E4F50CF50DC2B6120183AE11E5B5
:1004AB00127803C333CE33CED8F92477F582740395
:1004BB003EF583E582250DF582E583350CF583E466
:1004CB0093FF120521AF0E120521D2B6AF0E7801A4
:1004DB00EF08800103D8FDF50E050DE50D70020543
:0D04EB000CC39408E50C6480948040AC22A2
:0B0547007F767E5E7DDF7C01020003FA
:0300000002040FE8
:0C040F00787FE4F6D8FD75811D020456CC
:1002950075F008758200EF2FFFEE33FECD33CDCC20
:1002A50033CCC58233C5829BED9AEC99E5829840A3
:1002B5000CF582EE9BFEED9AFDEC99FC0FD5F0D680
:1002C500E4CEFBE4CDFAE4CCF9A88222B800C1B9AA
:1002D5000059BA002DEC8BF084CFCECDFCE5F0CBE8
:1002E500F97818EF2FFFEE33FEED33FDEC33FCEB21
:1002F50033FB10D703994004EB99FB0FD8E5E4F9DC
:10030500FA227818EF2FFFEE33FEED33FDEC33FCC8
:10031500C933C910D7059BE99A4007EC9BFCE99ABC
:10032500F90FD8E0E4C9FAE4CCFB2275F010EF2F01
:10033500FFEE33FEED33FDCC33CCC833C810D70701
:100345009BEC9AE899400AED9BFDEC9AFCE899F83C
:0E0355000FD5F0DAE4CDFBE4CCFAE4C8F922CF
:10041B00020547E493A3F8E493A34003F68001F2AB
:10042B0008DFF48029E493A3F85407240CC8C333E2
:10043B00C4540F4420C8834004F456800146F6DFB1
:10044B00E4800B0102040810204080900552E47EEA
:10045B00019360BCA3FF543F30E509541FFEE493A6
:10046B00A360010ECF54C025E060A840B8E493A36D
:10047B00FAE493A3F8E493A3C8C582C8CAC583CA98
:10048B00F0A3C8C582C8CAC583CADFE9DEE780BE50
:01055A0000A0
:00000001FF
