:040097007FD07E0791
:10009B00D3EF9400EE940040147D727C00ED1D7044
:0D00AB00011CED4C70F7EF1F70E61E80E3A6
:0100B8002225
:100003007590FFC2A37F647E0012009BD2A320B031
:0C00130008C290C292C294C29620B14173
:10001F007508007509FE750A00750B087F647E0070
:10002F0012009BE50B450A6028AF097801EF0880A5
:10003F000123D8FD750800F509F5907F647E001245
:10004F00009BE50B150B850A0A7002150AF50B804C
:01005F00D2CE
:10006000E4F59020B2307590801200977590C01220
:1000700000977590E01200977590F01200977590B8
:10008000F81200977590FC1200977590FE12009779
:070090007590FF120097229A
:030000000200B942
:0C00B900787FE4F6D8FD75810B0200038F
:00000001FF
