:1000B300750800F509D2A77580FFC2A7D2A675807F
:0E00C30006C2A6D2A7850980C2A77F017E00D3
:1000D100D3EF9400EE940040147D907C00ED1D70F0
:0D00E100011CED4C70F7EF1F70E61E80E370
:0100EE0022EF
:100003007508007509FED2A77580FFC2A7D2A67531
:10001300806D1200C4AF097801EF08800123D8FD79
:10002300750800F509D2A77580FFC2A7D2A675800F
:100033005B1200C4AF097801EF08800123D8FD7576
:100043000800F509D2A77580FFC2A7D2A675803F25
:100053001200C4AF097801EF08800123D8FD120014
:10006300B3AF097801EF08800123D8FD750800F5C7
:1000730009D2A77580FFC2A7D2A675804F1200C40C
:10008300AF097801EF08800123D8FD1200B3AF094F
:100093007801EF08800123D8FD750800F509D2A780
:1000A3007580FFC2A7D2A67580661200C402000342
:030000000200EF0C
:0C00EF00787FE4F6D8FD7581090200035B
:00000001FF
