:10000300C2907508FF75099BE5091509AE087002D2
:1000130015084E70F3C2917508FF75099BE5091524
:1000230009AE08700215084E70F3C2927508FF7589
:10003300099BE5091509AE08700215084E70F3C255
:10004300937508FF75099BE5091509AE087002153C
:10005300084E70F3C2947508FF75099BE5091509ED
:10006300AE08700215084E70F3C2957508FF750946
:100073009BE5091509AE08700215084E70F3C29688
:100083007508FF75099BE5091509AE087002150887
:100093004E70F3C2977508FF75099BE5091509AE04
:0E00A30008700215084E70F37590FF020003FE
:030000000200B14A
:0C00B100787FE4F6D8FD75810902000399
:00000001FF
