:1000A100E0EF016D016D01EFE7F7F7F780F7FBC3B3
:1000B100FF83BFBF83FBFB8383FBFB83FBFB83FFCF
:10007E00C2B5E4FDFCEF30E004D2B48002C2B4D2CB
:10008E00B5C2B5EFC313FF0DBD00010CED64084CF6
:02009E0070E30D
:0100A000223D
:0500CD00C2B6D2B6220C
:10000300E4F508F509750A32750B807980E4FBFA8B
:10001300AE08E5097803C333CE33CED8F924A1F56E
:100023008274003EF583E5822BF582E5833AF583FE
:10003300E493FF12007EAF0112007E1200CD78011F
:10004300AF01EF08800103D8FDF90BBB00010AEBF8
:1000530064084A70BBE50B150B7002150AD3E50B58
:100063009400E50A940050A30509E5097002050808
:0B007300C39404E5089400408C8085D5
:030000000200C13A
:0C00C100787FE4F6D8FD75810B02000387
:00000001FF
