:1004C3003F065B4F666D7D077F6FFEFDFBF7EFDF3A
:0204D300BF7FE9
:0A04E500040901DF5E76020D001429
:1004A500D3EF9400EE940040147D727C00ED1D7036
:0D04B500011CED4C70F7EF1F70E61E80E398
:0104C2002217
:080181008F128E118D108C0FFE
:100189007580FFD2A7E5089004CD93F580C2A7E555
:1001990008B4080040030202E69001A9F828287370
:1001A9000201C10201D60201FE02022602024C022C
:1001B90002710202950202C3D2A67B807A967998CF
:1001C9007800AF0CAE0BAD0AAC090202B6D2A67B21
:1001D900807A9679987800AF0CAE0BAD0AAC09120B
:1001E900032DAC00AD01AE02AF037B407A42790F1B
:1001F90078000202B6D2A67B407A42790F7800AF26
:100209000CAE0BAD0AAC0912032DAC00AD01AE0268
:10021900AF037BA07A86790178000202B6D2A67B69
:10022900A07A8679017800AF0CAE0BAD0AAC091241
:10023900032DAC00AD01AE02AF03E47B107A27F9C0
:10024900F8806AD2A6E47B107A27F9F8AF0CAE0BD6
:10025900AD0AAC0912032DAC00AD01AE02AF03E447
:100269007BE87A03F9F88045D2A6E47BE87A03F9BA
:10027900F8AF0CAE0BAD0AAC0912032DAC00AD0101
:10028900AE02AF03E47B64FAF9F88021D2A6E47BDD
:1002990064FAF9F8AF0CAE0BAD0AAC0912032DAC38
:1002A90000AD01AE02AF03E47B0AFAF9F812032D9F
:1002B90074C32FF58274043E801BD2A6E47B0AFA2C
:1002C900F9F8AF0CAE0BAD0AAC0912032D74C32BB0
:1002D900F58274043AF583E493F580C2A60508E52E
:0702E90008B40803E4F50866
:0102F00022EB
:1004D500D2AFD2A9D28C758901758AFE758CC922D5
:10000E001204D575B0F0E5B064F0606A7F147E001E
:10001E001204A5E5B064F0605DAFB0EF24906023EC
:10002E0024C0601724E0600B24F0701DE4F50DF57C
:10003E000E8016750D00750E01800E750D00750E75
:10004E00028006750D00750E0375B00FAFB0EF246C
:10005E00F9601324FC600B24FE60031480137404F7
:10006E00800674088002740C250EF50EE4350DF52D
:10007E000DE5B0B40FFB75B0FFE5B0F460417F0540
:10008E007E001204A5E5B0F46030AFB0EF24096035
:10009E002324FC601724FE600B14701E750D007572
:1000AE000E108016750D00750E11800E750D0075F3
:1000BE000E128006750D00750E13E5B0B4FFFBE54C
:1000CE000D6003020011E50E24FC604924F4607CEF
:1000DE0024FD700302016C24136003020011750DE0
:1000EE0000750E147FFF7EE07DF57C05AB0CAA0B30
:1000FE00A90AA809C31203BF7003020011E50C245C
:10010E0001F50CE4350BF50BE4350AF50AE4350977
:10011E00F509020011750D00750E14E4FFFEFDFCCD
:10012E00AB0CAA0BA90AA809C31203BF70030200E5
:10013E0011E50C24FFF50CE50B34FFF50BE50A3445
:10014E00FFF50AE50934FFF509020011750D00757A
:10015E000E14E4F50CF50BF50AF509020011750DF8
:10016E0000750E14750C76750B5E750ADF75090138
:03017E000200116B
:03000B0002045C90
:10045C00C0E0C0F0C083C082C0D075D000C000C066
:10046C0001C002C003C004C005C006C007758AFEE7
:10047C00758CC9AF0CAE0BAD0AAC09120181D0075B
:10048C00D006D005D004D003D002D001D000D0D0FB
:09049C00D082D083D0F0D0E03210
:030000000203D028
:0C03D000787FE4F6D8FD75811202041756
:1002F10075F008758200EF2FFFEE33FECD33CDCCC4
:1003010033CCC58233C5829BED9AEC99E582984046
:100311000CF582EE9BFEED9AFDEC99FC0FD5F0D623
:10032100E4CEFBE4CDFAE4CCF9A88222B800C1B94D
:100331000059BA002DEC8BF084CFCECDFCE5F0CB8B
:10034100F97818EF2FFFEE33FEED33FDEC33FCEBC4
:1003510033FB10D703994004EB99FB0FD8E5E4F97F
:10036100FA227818EF2FFFEE33FEED33FDEC33FC6C
:10037100C933C910D7059BE99A4007EC9BFCE99A60
:10038100F90FD8E0E4C9FAE4CCFB2275F010EF2FA5
:10039100FFEE33FEED33FDCC33CCC833C810D707A5
:1003A1009BEC9AE899400AED9BFDEC9AFCE899F8E0
:0E03B1000FD5F0DAE4CDFBE4CCFAE4C8F92273
:1003BF00EB9FF5F0EA9E42F0E99D42F0E89C45F094
:0103CF00220B
:1003DC0002000EE493A3F8E493A34003F68001F229
:1003EC0008DFF48029E493A3F85407240CC8C33322
:1003FC00C4540F4420C8834004F456800146F6DFF1
:10040C00E4800B01020408102040809004E5E47E97
:10041C00019360BCA3FF543F30E509541FFEE493E5
:10042C00A360010ECF54C025E060A840B8E493A3AC
:10043C00FAE493A3F8E493A3C8C582C8CAC583CAD7
:10044C00F0A3C8C582C8CAC583CADFE9DEE780BE8F
:0104EF00000C
:00000001FF
