:0A0390003F065B4F666D7D077F6F2F
:0903860001130004140000000042
:0B03510093F580D2A6C2A67F057E00B7
:10035C00D3EF9400EE940040147D727C00ED1D7080
:0D036C00011CED4C70F7EF1F70E61E80E3E2
:010379002261
:0C037A00D28C758901758AFD758C4B22B0
:08000300AF17AE16AD15AC14E9
:08000B008F0B8E0A8D098C0891
:100013007B807A96799878001201C78F0C7B807A5F
:100023009679987800AF0BAE0AAD09AC081201C7F8
:10003300AC00AD01AE02AF037B407A42790F78008A
:100043001201C78F0D7B407A42790F7800AF0BAE58
:100053000AAD09AC081201C7AC00AD01AE02AF0393
:100063007BA07A86790178001201C78F0E7BA07A74
:100073008679017800AF0BAE0AAD09AC081201C74F
:10008300AC00AD01AE02AF03E47B107A27F9F8129E
:1000930001C78F0FE47B107A27F9F8AF0BAE0AADD7
:1000A30009AC081201C7AC00AD01AE02AF03E47B9B
:1000B300E87A03F9F81201C78F10E47BE87A03F9B1
:1000C300F8AF0BAE0AAD09AC081201C7AC00AD0125
:1000D300AE02AF03E47B64FAF9F81201C78F11E4AF
:1000E3007B64FAF9F8AF0BAE0AAD09AC081201C78D
:1000F300AC00AD01AE02AF03E47B0AFAF9F81201DA
:10010300C78F12E47B0AFAF9F8AF0BAE0AAD09AC5C
:10011300081201C7C2A6C2A71203587580FED2A750
:10012300C2A7E50C9003901203517580FDD2A7C2BC
:10013300A7E50D1203517580FBD2A7C2A7E50E12E6
:1001430003517580F7D2A7C2A7E50F12035175803B
:10015300EFD2A7C2A7E5101203517580DFD2A7C261
:10016300A7E5111203517580BFD2A7C2A7E51212EA
:10017300035175807FD2A7C2A7EB93F580D2A6C2A5
:08018300A67F057E0002035C6B
:1002F60012037A7FFF7EE07DF57C05AB17AA16A96F
:1003060015A814C31202595041E513C39414500F93
:10031600308DF6C28D758AFD758C4B051380EAE526
:1003260013B4141BE5172401F517E43516F516E486
:100336003515F515E43514F514E4F513120003121A
:0B034600000312000312000380A92234
:0300000002026A8F
:0C026A00787FE4F6D8FD7581170202B120
:10018B0075F008758200EF2FFFEE33FECD33CDCC2B
:10019B0033CCC58233C5829BED9AEC99E5829840AE
:1001AB000CF582EE9BFEED9AFDEC99FC0FD5F0D68B
:1001BB00E4CEFBE4CDFAE4CCF9A88222B800C1B9B5
:1001CB000059BA002DEC8BF084CFCECDFCE5F0CBF3
:1001DB00F97818EF2FFFEE33FEED33FDEC33FCEB2C
:1001EB0033FB10D703994004EB99FB0FD8E5E4F9E7
:1001FB00FA227818EF2FFFEE33FEED33FDEC33FCD4
:10020B00C933C910D7059BE99A4007EC9BFCE99AC7
:10021B00F90FD8E0E4C9FAE4CCFB2275F010EF2F0C
:10022B00FFEE33FEED33FDCC33CCC833C810D7070C
:10023B009BEC9AE899400AED9BFDEC9AFCE899F847
:0E024B000FD5F0DAE4CDFBE4CCFAE4C8F922DA
:10025900EB9FF5F0EA9E42F0E99D42F0E89C45F0FB
:010269002272
:100276000202F6E493A3F8E493A34003F68001F2A6
:1002860008DFF48029E493A3F85407240CC8C33389
:10029600C4540F4420C8834004F456800146F6DF58
:1002A600E4800B0102040810204080900386E47E5F
:1002B600019360BCA3FF543F30E509541FFEE4934D
:1002C600A360010ECF54C025E060A840B8E493A314
:1002D600FAE493A3F8E493A3C8C582C8CAC583CA3F
:1002E600F0A3C8C582C8CAC583CADFE9DEE780BEF7
:01038F00006D
:00000001FF
