:0A0327003F065B4F666D7D077F6F98
:0B02F20093F580D2A6C2A67F057E0017
:1002FD00D3EF9400EE940040147D727C00ED1D70E0
:0D030D00011CED4C70F7EF1F70E61E80E341
:01031A0022C0
:080003008F0B8E0A8D098C0899
:10000B007B807A96799878001201BF8F0C7B807A6F
:10001B009679987800AF0BAE0AAD09AC081201BF08
:10002B00AC00AD01AE02AF037B407A42790F780092
:10003B001201BF8F0D7B407A42790F7800AF0BAE68
:10004B000AAD09AC081201BFAC00AD01AE02AF03A3
:10005B007BA07A86790178001201BF8F0E7BA07A84
:10006B008679017800AF0BAE0AAD09AC081201BF5F
:10007B00AC00AD01AE02AF03E47B107A27F9F812A6
:10008B0001BF8F0FE47B107A27F9F8AF0BAE0AADE7
:10009B0009AC081201BFAC00AD01AE02AF03E47BAB
:1000AB00E87A03F9F81201BF8F10E47BE87A03F9C1
:1000BB00F8AF0BAE0AAD09AC081201BFAC00AD0135
:1000CB00AE02AF03E47B64FAF9F81201BF8F11E4BF
:1000DB007B64FAF9F8AF0BAE0AAD09AC081201BF9D
:1000EB00AC00AD01AE02AF03E47B0AFAF9F81201E2
:1000FB00BF8F12E47B0AFAF9F8AF0BAE0AAD09AC6D
:10010B00081201BFC2A6C2A71202F97580FED2A7C0
:10011B00C2A7E50C9003271202F27580FDD2A7C28D
:10012B00A7E50D1202F27580FBD2A7C2A7E50E124E
:10013B0002F27580F7D2A7C2A7E50F1202F2758003
:10014B00EFD2A7C2A7E5101202F27580DFD2A7C2C9
:10015B00A7E5111202F27580BFD2A7C2A7E5121252
:10016B0002F275807FD2A7C2A7EB93F580D2A6C20D
:08017B00A67F057E000202FDD3
:1002620075167675155E7514DF75130120B0387F2B
:10027200147E001202FD20B02EE4FFFEFDFCAB1640
:10028200AA15A914A813D31202514018E51624FF87
:10029200F516E51534FFF515E51434FFF514E513ED
:1002A20034FFF51330B0FD20B1387F147E00120206
:1002B200FD20B12E7FFF7EE07DF57C05AB16AA15F1
:1002C200A914A813C31202515015E5162401F516FC
:1002D200E43515F515E43514F514E43513F513304A
:1002E200B1FDAF16AE15AD14AC1312000302026ECF
:0300000002031BDD
:0C031B00787FE4F6D8FD758116020262BE
:1001830075F008758200EF2FFFEE33FECD33CDCC33
:1001930033CCC58233C5829BED9AEC99E5829840B6
:1001A3000CF582EE9BFEED9AFDEC99FC0FD5F0D693
:1001B300E4CEFBE4CDFAE4CCF9A88222B800C1B9BD
:1001C3000059BA002DEC8BF084CFCECDFCE5F0CBFB
:1001D300F97818EF2FFFEE33FEED33FDEC33FCEB34
:1001E30033FB10D703994004EB99FB0FD8E5E4F9EF
:1001F300FA227818EF2FFFEE33FEED33FDEC33FCDC
:10020300C933C910D7059BE99A4007EC9BFCE99ACF
:10021300F90FD8E0E4C9FAE4CCFB2275F010EF2F14
:10022300FFEE33FEED33FDCC33CCC833C810D70714
:100233009BEC9AE899400AED9BFDEC9AFCE899F84F
:0E0243000FD5F0DAE4CDFBE4CCFAE4C8F922E2
:10025100EB9FF5F0EA9E42F0E99D42F0E89C45F003
:01026100227A
:00000001FF
