:10000300C2907508FC750917E5091509AE08700259
:1000130015084E70F3C2917508FC750917E50915AB
:1000230009AE08700215084E70F3C2927508FC758C
:100033000917E5091509AE08700215084E70F3C2D9
:10004300937508FC750917E5091509AE08700215C3
:10005300084E70F3C2947508FC750917E509150974
:10006300AE08700215084E70F3C2957508FC750949
:1000730017E5091509AE08700215084E70F3C2960C
:100083007508FC750917E5091509AE08700215080E
:100093004E70F3C2977508FC750917E5091509AE8B
:0900A30008700215084E70F322EA
:030000000200AC4F
:0C00AC00787FE4F6D8FD7581090200039E
:00000001FF
