:10039E000000003F000000060000005B0000004F60
:1003AE00000000660000006D0000007D00000007E8
:0803BE000000007F0000006F49
:0403C6007F057E0031
:1003CA00D3EF9400EE6480948040147D907C00ED1D
:0F03DA001D70011CED4C70F7EF1F70E41E80E1E9
:0103E90022F1
:080003008F0F8E0E8D0D8C0C89
:10000B007B807A96799878001202238E108F117B61
:10001B00807A9679987800AF0FAE0EAD0DAC0C12BE
:10002B000223AC00AD01AE02AF037B407A42790FE5
:10003B0078001202238E128F137B407A42790F784D
:10004B0000AF0FAE0EAD0DAC0C120223AC00AD0128
:10005B00AE02AF037BA07A86790178001202238E61
:10006B00148F157BA07A8679017800AF0FAE0EAD99
:10007B000DAC0C120223AC00AD01AE02AF03E47B5E
:10008B00107A27F9F81202238E168F17E47B107A59
:10009B0027F9F8AF0FAE0EAD0DAC0C120223AC006E
:1000AB00AD01AE02AF03E47BE87A03F9F812022349
:1000BB008E188F19E47BE87A03F9F8AF0FAE0EAD0B
:1000CB000DAC0C120223AC00AD01AE02AF03E47B0E
:1000DB0064FAF9F81202238E1A8F1BE47B64FAF987
:1000EB00F8AF0FAE0EAD0DAC0C120223AC00AD0190
:1000FB00AE02AF03E47B0AFAF9F81202238E1C8FCF
:10010B001DE47B0AFAF9F8AF0FAE0EAD0DAC0C1275
:10011B000223AE02AF038E1E8F1F7522007523FEC6
:10012B00E4FBFAEA7063EBB40800505D90013EF813
:10013B0028287302015602015E02016602016E025B
:10014B00017602017E02018602018E851020851147
:10015B00218036851220851321802E85142085154C
:10016B00218026851620851721801E85182085194C
:10017B00218016851A20851B21800E851C20851D4C
:10018B00218006851E20851F217580FFD2A7C2A75F
:10019B00AE20E5217802C333CE33CED8F9249EF5B9
:1001AB008274033EF5831202C68F80D2A6C2A68547
:1001BB002380D2A7C2A77F017E001203CAAF237888
:1001CB0001EF08800123D8FD752200F5230BBB003E
:0B01DB00010AEB64084A600302012ED9
:0101E60022F6
:1002D600750B4E750A617509BC75080020B034129D
:1002E60003C620B02EE4FFFEFDFCAB0BAA0AA9094B
:1002F600A808C31202B5401BE50B24FFF50BE50A5F
:1003060034FFF50AE50934FFF509E50834FFF50879
:1003160030B0FD20B1341203C620B12E7FFF7EE03F
:100326007DF57C05AB0BAA0AA909A808D31202B56C
:100336005018E50B2401F50BE4350AF50AE43509F6
:10034600F509E43508F50830B1FD20B2121203C6EE
:1003560020B20CE4F50BF50AF509F50830B2FD20DC
:10036600B3281203C620B322E4FFFEFDFCAB0BAAA2
:100376000AA909A808C31202B5400F750BFF750A32
:10038600E07509F575080530B3FDAF0BAE0AAD098A
:08039600AC081200030202E2B0
:030000000203EA0E
:0C03EA00787FE4F6D8FD7581230202D66E
:1001E70075F008758200EF2FFFEE33FECD33CDCCCF
:1001F70033CCC58233C5829BED9AEC99E582984052
:100207000CF582EE9BFEED9AFDEC99FC0FD5F0D62E
:10021700E4CEFBE4CDFAE4CCF9A88222B800C1B958
:100227000059BA002DEC8BF084CFCECDFCE5F0CB96
:10023700F97818EF2FFFEE33FEED33FDEC33FCEBCF
:1002470033FB10D703994004EB99FB0FD8E5E4F98A
:10025700FA227818EF2FFFEE33FEED33FDEC33FC77
:10026700C933C910D7059BE99A4007EC9BFCE99A6B
:10027700F90FD8E0E4C9FAE4CCFB2275F010EF2FB0
:10028700FFEE33FEED33FDCC33CCC833C810D707B0
:100297009BEC9AE899400AED9BFDEC9AFCE899F8EB
:0E02A7000FD5F0DAE4CDFBE4CCFAE4C8F9227E
:1002B500EB9FF5F0EA9E42F0E99D42F0E89C45F09F
:0102C5002216
:1002C600E493FC740193FD740293FE740393FF227E
:00000001FF
