:0A007A003F065B4F666D7D077F6F48
:10005000D3EF9400EE940040147D907C00ED1D7071
:0D006000011CED4C70F7EF1F70E61E80E3F1
:01006D002270
:10000300E4F508F509C2A6C2A77F057E00120050D9
:100013007580FED2A7C2A7747A2509F582740035CC
:1000230008F583E493F580D2A6C2A67F057E00126D
:1000330000507FC87E001200500509E509700205D3
:0D00430008C3940AE5086480948040B92247
:0300000002006E8D
:0C006E00787FE4F6D8FD758109020003DC
:00000001FF
