:100164003F065B4F666D7D077F6F777C395E7971E3
:040174007638400099
:0301780001081368
:10013000D3EF9400EE940040147D907C00ED1D7090
:0D014000011CED4C70F7EF1F70E61E80E310
:01014D00228F
:1000030075B0F0E5B064F0605A7F0A7E00120130EB
:10001300E5B064F0604DAFB0EF2490601B24C06086
:100023001224E0600924F07012E4F508800D7508CD
:10003300018008750802800375080375B00FAFB01F
:10004300EF24F9601324FC600B24FE600314800E7C
:100053007404800674088002740C2508F508E5B062
:10006300B40FFB75B0FFE5B0F460357F0A7E001274
:100073000130E5B0F46029AFB0EF2409601A24FC25
:10008300601124FE6008147012750810800D750845
:100093001180087508128003750813E5B0B4FFFBDF
:0100A300223A
:10014E007580FED2A7C2A7D2A6120003E5089001C1
:06015E006493F58080F3BC
:030000000200A457
:0C00A400787FE4F6D8FD7581080200EBBF
:1000B00002014EE493A3F8E493A34003F68001F217
:1000C00008DFF48029E493A3F85407240CC8C33351
:1000D000C4540F4420C8834004F456800146F6DF20
:1000E000E4800B0102040810204080900178E47E37
:1000F000019360BCA3FF543F30E509541FFEE49315
:10010000A360010ECF54C025E060A840B8E493A3DB
:10011000FAE493A3F8E493A3C8C582C8CAC583CA06
:10012000F0A3C8C582C8CAC583CADFE9DEE780BEBE
:01017B000083
:00000001FF
