:08007A00FFEFEF83AB83EFFF02
:10004700750800750908C2B5EF30E004D2B4800224
:10005700C2B4D2B5EFC313FFE5091509700215083D
:07006700E509450870E022E5
:10000300750C80E4F50AF50BC2B6747A250BF582FC
:100013007400350AF583E493FF120047AF0C120016
:1000230047D2B6AF0C7801EF08800103D8FDF50C79
:10003300050BE50B7002050AC39408E50A64809476
:040043008040C52212
:0300000002006E8D
:0C006E00787FE4F6D8FD75810C020003D9
:00000001FF
