:0A03AD003F065B4F666D7D077F6F12
:0903A30001130004140000000025
:0B03630093F580D2A6C2A67F057E00A5
:10036E00D3EF9400EE940040147D727C00ED1D706E
:0D037E00011CED4C70F7EF1F70E61E80E3D0
:01038B00224F
:0B039800D28C438905E4F58AF58C2225
:0C038C00D28E438910758D4B758BFD22BD
:080003008F0B8E0A8D098C0899
:10000B007B807A96799878001201BF8F0C7B807A6F
:10001B009679987800AF0BAE0AAD09AC081201BF08
:10002B00AC00AD01AE02AF037B407A42790F780092
:10003B001201BF8F0D7B407A42790F7800AF0BAE68
:10004B000AAD09AC081201BFAC00AD01AE02AF03A3
:10005B007BA07A86790178001201BF8F0E7BA07A84
:10006B008679017800AF0BAE0AAD09AC081201BF5F
:10007B00AC00AD01AE02AF03E47B107A27F9F812A6
:10008B0001BF8F0FE47B107A27F9F8AF0BAE0AADE7
:10009B0009AC081201BFAC00AD01AE02AF03E47BAB
:1000AB00E87A03F9F81201BF8F10E47BE87A03F9C1
:1000BB00F8AF0BAE0AAD09AC081201BFAC00AD0135
:1000CB00AE02AF03E47B64FAF9F81201BF8F11E4BF
:1000DB007B64FAF9F8AF0BAE0AAD09AC081201BF9D
:1000EB00AC00AD01AE02AF03E47B0AFAF9F81201E2
:1000FB00BF8F12E47B0AFAF9F8AF0BAE0AAD09AC6D
:10010B00081201BFC2A6C2A712036A7580FED2A74E
:10011B00C2A7E50C9003AD1203637580FDD2A7C295
:10012B00A7E50D1203637580FBD2A7C2A7E50E12DC
:10013B0003637580F7D2A7C2A7E50F12036375801F
:10014B00EFD2A7C2A7E5101203637580DFD2A7C257
:10015B00A7E5111203637580BFD2A7C2A7E51212E0
:10016B00036375807FD2A7C2A7EB93F580D2A6C29B
:08017B00A67F057E0002036E61
:1002EE0012039812038C7FFF7EE07DF57C05AB1721
:1002FE00AA16A915A814C31202515058E513C39497
:10030E0014500F308FF6C28F758BFD758D4B051304
:10031E0080EAE513B41405E4F513B290AF8AE4FC59
:10032E00FDFE120003AF8AE4FCFDFE120003AF8A4D
:10033E00E4FCFDFE120003AF8AE4FCFDFE12000396
:10034E00AF8AE4FCFDFE120003AF8AE4FCFDFE1250
:05035E00000380922263
:0300000002026297
:0C026200787FE4F6D8FD7581170202A930
:1001830075F008758200EF2FFFEE33FECD33CDCC33
:1001930033CCC58233C5829BED9AEC99E5829840B6
:1001A3000CF582EE9BFEED9AFDEC99FC0FD5F0D693
:1001B300E4CEFBE4CDFAE4CCF9A88222B800C1B9BD
:1001C3000059BA002DEC8BF084CFCECDFCE5F0CBFB
:1001D300F97818EF2FFFEE33FEED33FDEC33FCEB34
:1001E30033FB10D703994004EB99FB0FD8E5E4F9EF
:1001F300FA227818EF2FFFEE33FEED33FDEC33FCDC
:10020300C933C910D7059BE99A4007EC9BFCE99ACF
:10021300F90FD8E0E4C9FAE4CCFB2275F010EF2F14
:10022300FFEE33FEED33FDCC33CCC833C810D70714
:100233009BEC9AE899400AED9BFDEC9AFCE899F84F
:0E0243000FD5F0DAE4CDFBE4CCFAE4C8F922E2
:10025100EB9FF5F0EA9E42F0E99D42F0E89C45F003
:01026100227A
:10026E000202EEE493A3F8E493A34003F68001F2B6
:10027E0008DFF48029E493A3F85407240CC8C33391
:10028E00C4540F4420C8834004F456800146F6DF60
:10029E00E4800B01020408102040809003A3E47E4A
:1002AE00019360BCA3FF543F30E509541FFEE49355
:1002BE00A360010ECF54C025E060A840B8E493A31C
:1002CE00FAE493A3F8E493A3C8C582C8CAC583CA47
:1002DE00F0A3C8C582C8CAC583CADFE9DEE780BEFF
:0103AC000050
:00000001FF
