:1000A400FFDDDDDDC1DDDDE387BBBB87BBBB87FFD8
:1000B400C7BFBFBFBFBFBFC787BBBBBBBBBBBB87C4
:1000C400FF87BFBF87BFBF87FFBFBFBF87BFBF87D4
:1000D400FFC7BBBBA3BFBFC3FFBBBBBB83BBBBBB18
:1000E400EFEFEFEFEFEFEFEFFFCFF7F7F7F7F7FFF4
:1000F400FFDBD7D7CFD7D7DBFFE3EFEFEFEFEFEFA0
:10010400BBBBBBABAB9393BBFFB7B7A7A79797B7E3
:10011400C7BBBBBBBBBBBBC7DFDFDFDFC3DDDDC32F
:10012400FFFFE0DDDDDDE3FF7F7D7B770F77770F7A
:08013400FFFFFFFFFFFFFFFFCB
:03026200010D1279
:10024400D3EF9400EE940040147D907C00ED1D707B
:0D025400011CED4C70F7EF1F70E61E80E3FB
:01026100227A
:10021E00E4F508F509C2B5EF30E004D2B48002C2AD
:10022E00B4D2B5EFC313FF0509E5097002050864E2
:06023E0008450870E022F3
:1000030075B0F0E5B064F0605A7F0A7E00120244D6
:10001300E5B064F0604DAFB0EF2490601B24C06086
:100023001224E0600924F07012E4F50D800D750DC3
:10003300018008750D028003750D0375B00FAFB015
:10004300EF24F9601324FC600B24FE600314800E7C
:100053007404800674088002740C250DF50DE5B058
:10006300B40FFB75B0FFE5B0F460357F0A7E001274
:100073000244E5B0F46029AFB0EF2409601A24FC10
:10008300601124FE6008147012750D10800D750D3B
:10009300118008750D128003750D13E5B0B4FFFBD5
:0100A300223A
:1001C800750C80E4F50AF50BC2B6120003E50D754F
:1001D800F008A424A4F582E43400F583E582250B15
:1001E800F582E583350AF583E493FF12021EAF0C0E
:1001F80012021ED2B6AF0C7801EF08800103D8FDB9
:10020800F50C050BE50B7002050AC39408E50A64B2
:0602180080948040B32237
:0300000002013CBE
:0C013C00787FE4F6D8FD75810D02018388
:100148000201C8E493A3F8E493A34003F68001F204
:1001580008DFF48029E493A3F85407240CC8C333B8
:10016800C4540F4420C8834004F456800146F6DF87
:10017800E4800B0102040810204080900262E47EB3
:10018800019360BCA3FF543F30E509541FFEE4937C
:10019800A360010ECF54C025E060A840B8E493A343
:1001A800FAE493A3F8E493A3C8C582C8CAC583CA6E
:1001B800F0A3C8C582C8CAC583CADFE9DEE780BE26
:010265000098
:00000001FF
