:1000DE000E0A006D005B003F0006004F0006006632
:10008F007518007519FEE4F508F509E4F580D2A698
:10009F00C2A6AF198F80D2A7C2A7E50925E0240A0F
:1000AF00F808E6F580D2A6C2A6E509640645086001
:1000BF00CF7801EF08800123D8FD751800F51905D9
:0F00CF0009E509700205086407450870BE80B195
:03000000020003F8
:0C000300787FE4F6D8FD75811902004AF0
:10000F0002008FE493A3F8E493A34003F68001F278
:10001F0008DFF48029E493A3F85407240CC8C333F2
:10002F00C4540F4420C8834004F456800146F6DFC1
:10003F00E4800B01020408102040809000DEE47E73
:10004F00019360BCA3FF543F30E509541FFEE493B6
:10005F00A360010ECF54C025E060A840B8E493A37D
:10006F00FAE493A3F8E493A3C8C582C8CAC583CAA8
:10007F00F0A3C8C582C8CAC583CADFE9DEE780BE60
:0100EE000011
:00000001FF
