:1000D0003F065B4F666D7D077F6F777C395E797178
:0400E000763840002E
:0300E400010814FC
:1000B200D3EF9400EE940040147D727C00ED1D702D
:0D00C200011CED4C70F7EF1F70E61E80E38F
:0100CF00220E
:10008F00C2A6C2A77F057E001200B27580FED2A75E
:10009F00C2A7120000E5089000D093F580D2A6C247
:0300AF00A680DD4B
:03000000020003F8
:0C000300787FE4F6D8FD75810802004A01
:10000F0002008FE493A3F8E493A34003F68001F278
:10001F0008DFF48029E493A3F85407240CC8C333F2
:10002F00C4540F4420C8834004F456800146F6DFC1
:10003F00E4800B01020408102040809000E4E47E6D
:10004F00019360BCA3FF543F30E509541FFEE493B6
:10005F00A360010ECF54C025E060A840B8E493A37D
:10006F00FAE493A3F8E493A3C8C582C8CAC583CAA8
:10007F00F0A3C8C582C8CAC583CADFE9DEE780BE60
:0100E7000018
:00000001FF
