:0402060002100014CE
:1001E800D3EF9400EE940040147D727C00ED1D70F6
:0D01F800011CED4C70F7EF1F70E61E80E358
:0102050022D6
:1000030075B0F0E5B064F0606A7F147E001201E819
:10001300E5B064F0605DAFB0EF2490602324C0606E
:100023001724E0600B24F0701DE4F510F511801621
:10003300751000751101800E751000751102800690
:1000430075100075110375B00FAFB0EF24F960138D
:1000530024FC600B24FE6003148013740480067474
:10006300088002740C2511F511E43510F510E5B084
:10007300B40FFB75B0FFE5B0F460417F147E00124E
:1000830001E8E5B0F46035AFB0EF2409602324FC48
:10009300601724FE600B14701E751000751110801C
:1000A30016751000751111800E75100075111280F0
:0D00B30006751000751113E5B0B4FFFB22B7
:1000C000750800750901750A00750B01750C00753E
:1000D0000D01750E00750F01120003E51070F9E5B2
:1000E0001124EF602514603D146055240370E9E588
:1000F00009450870047F0180027F007508008F09A0
:10010000E508450924FF929080CEE50B450A70046E
:100110007F0180027F00750A008F0BE50A450B24E2
:10012000FF929180B3E50D450C70047F0180027F42
:1001300000750C008F0DE50C450D24FF9292809800
:10014000E50F450E70047F0180027F00750E008F61
:0C0150000FE50E450F24FF92930200D82B
:0300000002015C9E
:0C015C00787FE4F6D8FD7581110201A344
:100168000200C0E493A3F8E493A34003F68001F2ED
:1001780008DFF48029E493A3F85407240CC8C33398
:10018800C4540F4420C8834004F456800146F6DF67
:10019800E4800B0102040810204080900206E47EEF
:1001A800019360BCA3FF543F30E509541FFEE4935C
:1001B800A360010ECF54C025E060A840B8E493A323
:1001C800FAE493A3F8E493A3C8C582C8CAC583CA4E
:1001D800F0A3C8C582C8CAC583CADFE9DEE780BE06
:01020A0000F3
:00000001FF
