:0A0291003F065B4F666D7D077F6F2F
:0B02510093F580D2A6C2A67F057E00B8
:10025C00D3EF9400EE940040147D727C00ED1D7081
:0D026C00011CED4C70F7EF1F70E61E80E3E3
:010279002262
:080003008F0B8E0A8D098C0899
:10000B007B807A96799878001201BF8F0C7B807A6F
:10001B009679987800AF0BAE0AAD09AC081201BF08
:10002B00AC00AD01AE02AF037B407A42790F780092
:10003B001201BF8F0D7B407A42790F7800AF0BAE68
:10004B000AAD09AC081201BFAC00AD01AE02AF03A3
:10005B007BA07A86790178001201BF8F0E7BA07A84
:10006B008679017800AF0BAE0AAD09AC081201BF5F
:10007B00AC00AD01AE02AF03E47B107A27F9F812A6
:10008B0001BF8F0FE47B107A27F9F8AF0BAE0AADE7
:10009B0009AC081201BFAC00AD01AE02AF03E47BAB
:1000AB00E87A03F9F81201BF8F10E47BE87A03F9C1
:1000BB00F8AF0BAE0AAD09AC081201BFAC00AD0135
:1000CB00AE02AF03E47B64FAF9F81201BF8F11E4BF
:1000DB007B64FAF9F8AF0BAE0AAD09AC081201BF9D
:1000EB00AC00AD01AE02AF03E47B0AFAF9F81201E2
:1000FB00BF8F12E47B0AFAF9F8AF0BAE0AAD09AC6D
:10010B00081201BFC2A6C2A71202587580FED2A761
:10011B00C2A7E50C9002911202517580FDD2A7C2C5
:10012B00A7E50D1202517580FBD2A7C2A7E50E12EF
:10013B0002517580F7D2A7C2A7E50F120251758045
:10014B00EFD2A7C2A7E5101202517580DFD2A7C26A
:10015B00A7E5111202517580BFD2A7C2A7E51212F3
:10016B00025175807FD2A7C2A7EB93F580D2A6C2AE
:08017B00A67F057E0002025C74
:0B0286007F767E5E7DDF7C01020003BE
:0300000002027A7F
:0C027A00787FE4F6D8FD75811202028640
:1001830075F008758200EF2FFFEE33FECD33CDCC33
:1001930033CCC58233C5829BED9AEC99E5829840B6
:1001A3000CF582EE9BFEED9AFDEC99FC0FD5F0D693
:1001B300E4CEFBE4CDFAE4CCF9A88222B800C1B9BD
:1001C3000059BA002DEC8BF084CFCECDFCE5F0CBFB
:1001D300F97818EF2FFFEE33FEED33FDEC33FCEB34
:1001E30033FB10D703994004EB99FB0FD8E5E4F9EF
:1001F300FA227818EF2FFFEE33FEED33FDEC33FCDC
:10020300C933C910D7059BE99A4007EC9BFCE99ACF
:10021300F90FD8E0E4C9FAE4CCFB2275F010EF2F14
:10022300FFEE33FEED33FDCC33CCC833C810D70714
:100233009BEC9AE899400AED9BFDEC9AFCE899F84F
:0E0243000FD5F0DAE4CDFBE4CCFAE4C8F922E2
:00000001FF
