:1001A200202020202020202020202020202020204D
:1001B20000D6C7C4DCBCD2BED3C4A3C4E2BFD8D667
:1001C200C60041485A594A5358593100C4DCBCD27E
:1001D200BED3C4A3C4E2BFD8D6C6D6C7005A594AB2
:1001E2005358593120202020202020414800BCD2E1
:1001F200BED3C4A3C4E2BFD8D6C6D6C7C4DC004AA5
:10020200535859312020202020202041485A59009B
:10021200BED3C4A3C4E2BFD8D6C6D6C7C4DCBCD240
:10022200005859312020202020202041485A594A84
:100232005300C4A3C4E2BFD8D6C6D6C7C4DCBCD25E
:10024200BED300312020202020202041485A594A84
:1002520053585900C4E2BFD8D6C6D6C7C4DCBCD2F4
:10026200BED3C4A30020202020202041485A594A4E
:10027200535859312000BFD8D6C6D6C7C4DCBCD229
:10028200BED3C4A3C4E2002020202041485A594AC8
:100292005358593120202000D6C6D6C7C4DCBCD260
:1002A200BED3C4A3C4E2BFD800202041485A594A51
:1002B2005358593120202020200041485A594A538E
:1002C2005859312020202020202000CBAECEBBA3C5
:1002D200BA302E303000CEC2CAAAB6C8A3BA302E67
:0302E200303000B9
:10038400E4F594F593F592F591F596F595F5B2F5B6
:10039400B1F5B4F5B3F5CAF5C9F5CCF5CBF5E2F58D
:0203A400E12254
:100003001203845395FB4396045395FD4396025381
:1000130095FE4396011203C6E4F5087A017BA2E438
:10002300FDFF1202E57A017BA2E4FD7F011202E5E6
:100033007F207E031203ED7A017BB3E4FDFF1202FE
:10004300E57A017BC4E4FD7F011202E57F407E1F58
:100053001203ED7A017BCEE4FDFF1202E57A017B08
:10006300DFE4FD7F011202E57F407E1F1203ED7A7C
:10007300017BF0E4FDFF1202E57A027B01E4FD7FE0
:10008300011202E57F407E1F1203ED7A027B12E428
:10009300FDFF1202E57A027B23E4FD7F011202E5F4
:1000A3007F407E1F1203ED7A027B34E4FDFF1202D0
:1000B300E57A027B45E4FD7F011202E57F407E1F66
:1000C3001203ED7A027B56E4FDFF1202E57A027B0E
:1000D30067E4FD7F011202E57F407E1F1203ED7A84
:1000E300027B78E4FDFF1202E57A027B89E4FD7F5F
:1000F300011202E57F407E1F1203ED7A027B9AE430
:10010300FDFF1202E57A027BABE4FD7F011202E5FB
:100113007F407E1F1203ED7A017BB3E4FDFF1202E1
:10012300E57A027BBCE4FD7F011202E57F407E1F7E
:100133001203ED0508E508C39401500302001EE411
:10014300F5087A017BA2E4FDFF1202E57A017BA2A6
:10015300E4FD7F011202E57A027BCDE4FDFF12028A
:10016300E57A027BD8E4FD7F011202E57A027BCDBA
:10017300E4FD7F061202E57A027BD8E4FD7F0712D5
:1001830002E57F3412035D7F0312035D1204037FD4
:0F0193000312035D0508E508C3940140A580FE33
:0703E60012035D7F027E009F
:1003ED00EF1FAA0670011E4A600B7D0AEDD3940023
:0503FD0040EE1D80F739
:0104020022D7
:10043500E4F580C2A0D2A1D2A21203E9AF80C2A284
:04044500EF20E7F3CA
:010449002290
:10035D00AC07120435C2A0C2A1C2A27F147E001246
:10036D0003ED8C807F017E001203EDD2A27F017E12
:07037D00001203EDC2A222F1
:1003A600AC07120435D2A0C2A1C2A28C807F017E06
:1003B600001203EDD2A27F017E001203EDC2A2223B
:1003C6007F057E001203ED7F341203E67F301203B1
:1003D600E67F0C1203E67F011203E67F0602035D49
:1002E5008A098B0AA905EFB4080050499002F8F86D
:1002F50028287302031002031502031A02031F02C2
:10030500032402032902032E020333E924808021FA
:10031500E92490801CE924888017E924988012E953
:1003250024A0800DE924B08008E924A88003E924ED
:10033500B8FF12035D850A82850983E493FFD39490
:100345000040141203A67F0A7E001203ED050AE59C
:080355000A70E2050980DE22B6
:10041D007B3FEB2440FF12035D7F807E381203ED9E
:07042D007F3012035DDBEBE1
:0104340022A5
:100403007B01EB2440FF12035D7FB87E0B1203EDEB
:090413007F3012035D0BBB40E9D0
:01041C0022BD
:0300000002044AAD
:0C044A00787FE4F6D8FD75810A020003FB
:00000001FF
